:100000000C9434000C9451000C9479000C94510021
:100010000C9451000C9451000C9451000C9451001C
:100020000C9451000C9451000C9451000C948101DB
:100030000C9451000C9451000C9451000C945100FC
:100040000C9451000C9451000C9451000C945100EC
:100050000C9451000C9453000C9451000C945100DA
:100060000C9451000C94510011241FBECFEFD4E02A
:10007000DEBFCDBF11E0A0E0B1E0E8EDF9E002C0E5
:1000800005900D92AE32B107D9F721E0AEE2B1E0B2
:1000900001C01D92A934B207E1F70E946F030C94CE
:1000A000EA040C9400001F920F920FB60F921124D5
:1000B0008F939F9380912E018823A1F080917800E7
:1000C0009091790092500024969587950794969583
:1000D00087950794982F802D90934801809347012E
:1000E00010922E019F918F910F900FBE0F901F9035
:1000F00018951F920F920FB60F9211242F933F93D2
:100100004F935F936F937F938F939F93AF93BF931F
:10011000EF93FF934B9B86C090913A01809104012D
:10012000981381C0E0914201EE0FFF0BEA5EFE4F93
:100130000190F081E02D4081A0914201BB27A7FDF5
:10014000B095AA5DBE4F21E030E0C9010C9002C01D
:10015000880F991F0A94E2F7809584238083809109
:100160003901813069F028F0823089F08330E1F57F
:1001700015C080914201815087708093420134C044
:10018000809142018F5F8770809342012DC00E9451
:100190008904877099278093420126C020914201EB
:1001A00080910501992787FD9095820F911D27FD6C
:1001B0009A9599236CF0209142018091050199272D
:1001C00087FD9095820F911D27FD9A9508972CF039
:1001D0008091050181958093050180914201909164
:1001E0000501890F809342012A9AE0914201EE0FA6
:1001F000FF0BEA5EFE4F0190F081E02D4081A0915F
:100200004201BB27A7FDB095AA5DBE4F21E030E0BB
:10021000C9010C9002C0880F991F0A94E2F7842B41
:10022000808301C02A98FF91EF91BF91AF919F9178
:100230008F917F916F915F914F913F912F910F908F
:100240000FBE0F901F901895EAE7F0E09081987F1D
:100250009083803109F138F4843091F08830B1F026
:10026000823091F507C0803419F1803839F180323D
:1002700059F518C0EAE7F0E080818160808329C0E9
:10028000EAE7F0E080818260808323C0EAE7F0E063
:100290008081836080831DC0EAE7F0E08081846014
:1002A000808317C0EAE7F0E080818560808311C019
:1002B000EAE7F0E08081866080830BC0EAE7F0E047
:1002C00080818760808305C0EAE7F0E080818160FB
:1002D0008083EAE7F0E080818062808380818068AB
:1002E00080838081806480830895E1E8F0E08081EC
:1002F0008A60808383E08093890088EE8093880001
:1003000008951F920F920FB60F9211248F939F930F
:10031000AF93BF938091430190914401A091450117
:10032000B09146010196A11DB11D809343019093A8
:100330004401A0934501B0934601BF91AF919F91B5
:100340008F910F900FBE0F901F9018950F931F93D2
:10035000F89400914301109144012091450130919E
:1003600046017894602F712F822F932F1F910F9148
:100370000895CF92DF92EF92FF920F931F93FC01AB
:10038000A0E0B1E0A41BB1099B010E941D046B0118
:100390007C01242F30E0DF010E94310497018601A7
:1003A000060F171F281F391F00581F4F2F4F3F4F91
:1003B000D901C80122F481509F4FAF4FBF4F492F41
:1003C0005A2F6B2F772767FD7A95842F952F1F91D2
:1003D0000F91FF90EF90DF90CF9008950F931F93B0
:1003E00060913101709132018091470190914801F3
:1003F00049E10E94B90190933201809331018091CB
:1004000031019091320190580024880F991F001CEF
:10041000880F991F001C892F902D90933001809395
:100420002F0180912F019091300180912F019091A7
:100430003001833F9340B8F420912F013091300177
:100440002A503109220F331F80ED97E0821B930B56
:100450009093410180934001813D27E092070CF089
:10046000C6C00D9734F48DE090E0909341018093E5
:1004700040010E94A60100913C0110913D01209194
:100480003E0130913F01AB01BC01401B510B620B9F
:10049000730B809140019091410195958795AA2712
:1004A00097FDA095BA2F481759076A077B0708F4EC
:1004B0009EC080913B01813071F42A9810923B01DB
:1004C0000E94A60160933C0170933D0180933E0120
:1004D00090933F018CC0E0914201EE0FFF0BEA5E6A
:1004E000FE4F0190F081E02D4081A0914201BB2799
:1004F000A7FDB095AA5DBE4F21E030E0C9010C9088
:1005000002C0880F991F0A94E2F7809584238083A4
:1005100080913901813069F028F0823089F0833090
:10052000E1F515C0809142018150877080934201AE
:1005300034C0809142018F5F8770809342012DC04B
:100540000E948904877099278093420126C02091D8
:10055000420180910501992787FD9095820F911D99
:1005600027FD9A9599236CF0209142018091050115
:10057000992787FD9095820F911D27FD9A950897E1
:100580002CF08091050181958093050180914201B5
:1005900090910501890F809342012A9AE0914201CE
:1005A000EE0FFF0BEA5EFE4F0190F081E02D4081DF
:1005B000A0914201BB27A7FDB095AA5DBE4F21E0E7
:1005C00030E0C9010C9002C0880F991F0A94E2F72D
:1005D000842B808381E080933B010E94A60160937D
:1005E0003C0170933D0180933E0190933F011F9128
:1005F0000F910895CF93DF93E6E0F1E0C6E2D1E0FA
:1006000046E151E021E030E0A191B1916C91C90146
:10061000099002C0880F991F0A94E2F7862B8C93E9
:10062000E417F50789F73B985298439A5A9A5498D9
:100630005C9A229A53980E94750180E80E942401D6
:10064000F89482E480937C00EAE7F0E0808188609F
:100650008083789481E080932E0180912E01811116
:10066000FCCF80914701909148010E948E04F8943C
:10067000EAE7F0E08081877F808380E480937C00DC
:1006800078942AE088E190E00FB6F894A8958093DA
:1006900060000FBE20936000A89581E080932E013A
:1006A000E0914201EE0FFF0BEA5EFE4F0190F081F8
:1006B000E02D4081A0914201BB27A7FDB095AA5D26
:1006C000BE4F21E030E0C9010C9002C0880F991F95
:1006D0000A94E2F7842B8083DF91CF9108950E94E2
:1006E000FA020F2EFAE78F2E912CF02D0F2EFFE637
:1006F0006F2E712CF02D0F2EF9E62F2E312CF02DB0
:100700005524539429B12295217020933A0189B13F
:1007100036B182FB882780F9C82F80E0D82FCE0120
:10072000880F991F33FB992790F9892B8093390102
:10073000211143C0809104018823D1F0F894E998F5
:10074000F301808182608083F401808188608083EE
:1007500078942A9810923B0150922E010E94A60193
:1007600060933C0170933D0180933E0190933F0163
:10077000F401808183FB002700F910E01093380119
:10078000009337018DB381FBEE24E0F8F12CF09259
:100790003601E09235010130110519F4EA94EF2891
:1007A00009F4FFCF80912E01811135C0809139016C
:1007B0000E94EE0150922E012EC080910401281754
:1007C00081F0F894F30180818D7F8083F401808132
:1007D000877F8083F1018081837F84608083E99AB1
:1007E0007894F401808183FBCC24C0F8D12CD09282
:1007F0003801C09237018DB381FBAA24A0F8B12C37
:10080000B0923601A0923501AA94AB2819F4CA948B
:10081000CD2809F4FFCF8FB7881F8827881F90E065
:100820009093340180933301019709F0FFCF8091B9
:100830003A0180930401A89565CF0E9425043323D3
:1008400012F48A1B9B0B0C943304A29FB001B39F3C
:10085000C001A39F01D0B29F700D811D1124911D75
:1008600008950E942504B7FF0895821B930B0895F5
:100870008F929F92AF92BF92CF92DF92EF92FF92B0
:10088000CF93DF93EC01688179818A819B81611527
:1008900071058105910521F464E279ED8BE597E01E
:1008A0002DE133EF41E050E00E94990449015A01E3
:1008B0009B01AC01A7EAB1E40E94B5046B017C0185
:1008C000ACEEB4EFA50194010E94C304C60ED71E7E
:1008D000E81EF91EF7FE06C081E0C81AD108E1083B
:1008E00080E8F80AC882D982EA82FB82E894D7F8C5
:1008F000EE24FF24C601DF91CF91FF90EF90DF90AF
:10090000CF90BF90AF909F908F9008950E94380431
:10091000089580E091E00E9438040895A0E0B0E0DE
:100920008093000190930101A0930201B093030111
:100930000895052E97FB16F4009407D057FD0DD0AF
:100940000E94C80407FC09D07EF4909580957095AC
:1009500061957F4F8F4F9F4F0895509540953095EB
:1009600021953F4F4F4F5F4F08950E942504A59F4B
:10097000900DB49F900DA49F800D911D112408959A
:10098000B7FF0C94B5040E94B504821B930B089525
:10099000A1E21A2EAA1BBB1BFD010DC0AA1FBB1F83
:1009A000EE1FFF1FA217B307E407F50720F0A21BF5
:1009B000B30BE40BF50B661F771F881F991F1A9462
:1009C00069F760957095809590959B01AC01BD018C
:0809D000CF010895F894FFCF58
:1009D80001000000FF012A002A002A002400270045
:1009E80027002A002A002B002B002B0025002800B6
:0E09F80028002B002B00050607000405000157
:00000001FF
